{
  "_format": "hh-sol-artifact-1",
  "contractName": "NFT",
  "sourceName": "contracts/NFT.sol",
  "abi": [
    {
      "inputs": [],
      "stateMutability": "nonpayable",
      "type": "constructor"
    },
    {
      "anonymous": false,
      "inputs": [
        {
          "indexed": true,
          "internalType": "address",
          "name": "owner",
          "type": "address"
        },
        {
          "indexed": true,
          "internalType": "address",
          "name": "approved",
          "type": "address"
        },
        {
          "indexed": true,
          "internalType": "uint256",
          "name": "tokenId",
          "type": "uint256"
        }
      ],
      "name": "Approval",
      "type": "event"
    },
    {
      "anonymous": false,
      "inputs": [
        {
          "indexed": true,
          "internalType": "address",
          "name": "owner",
          "type": "address"
        },
        {
          "indexed": true,
          "internalType": "address",
          "name": "operator",
          "type": "address"
        },
        {
          "indexed": false,
          "internalType": "bool",
          "name": "approved",
          "type": "bool"
        }
      ],
      "name": "ApprovalForAll",
      "type": "event"
    },
    {
      "anonymous": false,
      "inputs": [
        {
          "indexed": true,
          "internalType": "address",
          "name": "from",
          "type": "address"
        },
        {
          "indexed": true,
          "internalType": "address",
          "name": "to",
          "type": "address"
        },
        {
          "indexed": true,
          "internalType": "uint256",
          "name": "tokenId",
          "type": "uint256"
        }
      ],
      "name": "Transfer",
      "type": "event"
    },
    {
      "inputs": [
        {
          "internalType": "address",
          "name": "to",
          "type": "address"
        },
        {
          "internalType": "uint256",
          "name": "tokenId",
          "type": "uint256"
        }
      ],
      "name": "approve",
      "outputs": [],
      "stateMutability": "nonpayable",
      "type": "function"
    },
    {
      "inputs": [
        {
          "internalType": "address",
          "name": "owner",
          "type": "address"
        }
      ],
      "name": "balanceOf",
      "outputs": [
        {
          "internalType": "uint256",
          "name": "",
          "type": "uint256"
        }
      ],
      "stateMutability": "view",
      "type": "function"
    },
    {
      "inputs": [],
      "name": "baseTokenURI",
      "outputs": [
        {
          "internalType": "string",
          "name": "",
          "type": "string"
        }
      ],
      "stateMutability": "view",
      "type": "function"
    },
    {
      "inputs": [
        {
          "internalType": "uint256",
          "name": "tokenId",
          "type": "uint256"
        }
      ],
      "name": "getApproved",
      "outputs": [
        {
          "internalType": "address",
          "name": "",
          "type": "address"
        }
      ],
      "stateMutability": "view",
      "type": "function"
    },
    {
      "inputs": [
        {
          "internalType": "address",
          "name": "owner",
          "type": "address"
        },
        {
          "internalType": "address",
          "name": "operator",
          "type": "address"
        }
      ],
      "name": "isApprovedForAll",
      "outputs": [
        {
          "internalType": "bool",
          "name": "",
          "type": "bool"
        }
      ],
      "stateMutability": "view",
      "type": "function"
    },
    {
      "inputs": [
        {
          "internalType": "address",
          "name": "recipient",
          "type": "address"
        }
      ],
      "name": "mintTo",
      "outputs": [
        {
          "internalType": "uint256",
          "name": "",
          "type": "uint256"
        }
      ],
      "stateMutability": "nonpayable",
      "type": "function"
    },
    {
      "inputs": [],
      "name": "name",
      "outputs": [
        {
          "internalType": "string",
          "name": "",
          "type": "string"
        }
      ],
      "stateMutability": "view",
      "type": "function"
    },
    {
      "inputs": [
        {
          "internalType": "uint256",
          "name": "tokenId",
          "type": "uint256"
        }
      ],
      "name": "ownerOf",
      "outputs": [
        {
          "internalType": "address",
          "name": "",
          "type": "address"
        }
      ],
      "stateMutability": "view",
      "type": "function"
    },
    {
      "inputs": [
        {
          "internalType": "address",
          "name": "from",
          "type": "address"
        },
        {
          "internalType": "address",
          "name": "to",
          "type": "address"
        },
        {
          "internalType": "uint256",
          "name": "tokenId",
          "type": "uint256"
        }
      ],
      "name": "safeTransferFrom",
      "outputs": [],
      "stateMutability": "nonpayable",
      "type": "function"
    },
    {
      "inputs": [
        {
          "internalType": "address",
          "name": "from",
          "type": "address"
        },
        {
          "internalType": "address",
          "name": "to",
          "type": "address"
        },
        {
          "internalType": "uint256",
          "name": "tokenId",
          "type": "uint256"
        },
        {
          "internalType": "bytes",
          "name": "data",
          "type": "bytes"
        }
      ],
      "name": "safeTransferFrom",
      "outputs": [],
      "stateMutability": "nonpayable",
      "type": "function"
    },
    {
      "inputs": [
        {
          "internalType": "address",
          "name": "operator",
          "type": "address"
        },
        {
          "internalType": "bool",
          "name": "approved",
          "type": "bool"
        }
      ],
      "name": "setApprovalForAll",
      "outputs": [],
      "stateMutability": "nonpayable",
      "type": "function"
    },
    {
      "inputs": [
        {
          "internalType": "string",
          "name": "_baseTokenURI",
          "type": "string"
        }
      ],
      "name": "setBaseTokenURI",
      "outputs": [],
      "stateMutability": "nonpayable",
      "type": "function"
    },
    {
      "inputs": [
        {
          "internalType": "bytes4",
          "name": "interfaceId",
          "type": "bytes4"
        }
      ],
      "name": "supportsInterface",
      "outputs": [
        {
          "internalType": "bool",
          "name": "",
          "type": "bool"
        }
      ],
      "stateMutability": "view",
      "type": "function"
    },
    {
      "inputs": [],
      "name": "symbol",
      "outputs": [
        {
          "internalType": "string",
          "name": "",
          "type": "string"
        }
      ],
      "stateMutability": "view",
      "type": "function"
    },
    {
      "inputs": [
        {
          "internalType": "uint256",
          "name": "tokenId",
          "type": "uint256"
        }
      ],
      "name": "tokenURI",
      "outputs": [
        {
          "internalType": "string",
          "name": "",
          "type": "string"
        }
      ],
      "stateMutability": "view",
      "type": "function"
    },
    {
      "inputs": [
        {
          "internalType": "address",
          "name": "from",
          "type": "address"
        },
        {
          "internalType": "address",
          "name": "to",
          "type": "address"
        },
        {
          "internalType": "uint256",
          "name": "tokenId",
          "type": "uint256"
        }
      ],
      "name": "transferFrom",
      "outputs": [],
      "stateMutability": "nonpayable",
      "type": "function"
    }
  ],
  "bytecode": "0x60806040523480156200001157600080fd5b506040518060400160405280600b81526020017f4e46545475746f7269616c0000000000000000000000000000000000000000008152506040518060400160405280600381526020017f4e46540000000000000000000000000000000000000000000000000000000000815250816000908051906020019062000096929190620000e0565b508060019080519060200190620000af929190620000e0565b5050506040518060200160405280600081525060079080519060200190620000d9929190620000e0565b50620001f5565b828054620000ee9062000190565b90600052602060002090601f0160209004810192826200011257600085556200015e565b82601f106200012d57805160ff19168380011785556200015e565b828001600101855582156200015e579182015b828111156200015d57825182559160200191906001019062000140565b5b5090506200016d919062000171565b5090565b5b808211156200018c57600081600090555060010162000172565b5090565b60006002820490506001821680620001a957607f821691505b60208210811415620001c057620001bf620001c6565b5b50919050565b7f4e487b7100000000000000000000000000000000000000000000000000000000600052602260045260246000fd5b61290180620002056000396000f3fe608060405234801561001057600080fd5b50600436106101005760003560e01c806370a0823111610097578063b88d4fde11610066578063b88d4fde146102bd578063c87b56dd146102d9578063d547cfb714610309578063e985e9c51461032757610100565b806370a0823114610223578063755edd171461025357806395d89b4114610283578063a22cb465146102a157610100565b806323b872dd116100d357806323b872dd1461019f57806330176e13146101bb57806342842e0e146101d75780636352211e146101f357610100565b806301ffc9a71461010557806306fdde0314610135578063081812fc14610153578063095ea7b314610183575b600080fd5b61011f600480360381019061011a9190611e00565b610357565b60405161012c9190612198565b60405180910390f35b61013d610439565b60405161014a91906121b3565b60405180910390f35b61016d60048036038101906101689190611e93565b6104cb565b60405161017a9190612131565b60405180910390f35b61019d60048036038101906101989190611dc4565b610511565b005b6101b960048036038101906101b49190611cbe565b610629565b005b6101d560048036038101906101d09190611e52565b610689565b005b6101f160048036038101906101ec9190611cbe565b6106a3565b005b61020d60048036038101906102089190611e93565b6106c3565b60405161021a9190612131565b60405180910390f35b61023d60048036038101906102389190611c59565b61074a565b60405161024a9190612335565b60405180910390f35b61026d60048036038101906102689190611c59565b610802565b60405161027a9190612335565b60405180910390f35b61028b61082f565b60405161029891906121b3565b60405180910390f35b6102bb60048036038101906102b69190611d88565b6108c1565b005b6102d760048036038101906102d29190611d0d565b6108d7565b005b6102f360048036038101906102ee9190611e93565b610939565b60405161030091906121b3565b60405180910390f35b6103116109a1565b60405161031e91906121b3565b60405180910390f35b610341600480360381019061033c9190611c82565b610a2f565b60405161034e9190612198565b60405180910390f35b60007f80ac58cd000000000000000000000000000000000000000000000000000000007bffffffffffffffffffffffffffffffffffffffffffffffffffffffff1916827bffffffffffffffffffffffffffffffffffffffffffffffffffffffff1916148061042257507f5b5e139f000000000000000000000000000000000000000000000000000000007bffffffffffffffffffffffffffffffffffffffffffffffffffffffff1916827bffffffffffffffffffffffffffffffffffffffffffffffffffffffff1916145b80610432575061043182610ac3565b5b9050919050565b606060008054610448906124d0565b80601f0160208091040260200160405190810160405280929190818152602001828054610474906124d0565b80156104c15780601f10610496576101008083540402835291602001916104c1565b820191906000526020600020905b8154815290600101906020018083116104a457829003601f168201915b5050505050905090565b60006104d682610b2d565b6004600083815260200190815260200160002060009054906101000a900473ffffffffffffffffffffffffffffffffffffffff169050919050565b600061051c826106c3565b90508073ffffffffffffffffffffffffffffffffffffffff168373ffffffffffffffffffffffffffffffffffffffff16141561058d576040517f08c379a0000000000000000000000000000000000000000000000000000000008152600401610584906122f5565b60405180910390fd5b8073ffffffffffffffffffffffffffffffffffffffff166105ac610b78565b73ffffffffffffffffffffffffffffffffffffffff1614806105db57506105da816105d5610b78565b610a2f565b5b61061a576040517f08c379a000000000000000000000000000000000000000000000000000000000815260040161061190612315565b60405180910390fd5b6106248383610b80565b505050565b61063a610634610b78565b82610c39565b610679576040517f08c379a0000000000000000000000000000000000000000000000000000000008152600401610670906121d5565b60405180910390fd5b610684838383610cce565b505050565b806007908051906020019061069f929190611a7d565b5050565b6106be838383604051806020016040528060008152506108d7565b505050565b6000806106cf83610fc8565b9050600073ffffffffffffffffffffffffffffffffffffffff168173ffffffffffffffffffffffffffffffffffffffff161415610741576040517f08c379a0000000000000000000000000000000000000000000000000000000008152600401610738906122d5565b60405180910390fd5b80915050919050565b60008073ffffffffffffffffffffffffffffffffffffffff168273ffffffffffffffffffffffffffffffffffffffff1614156107bb576040517f08c379a00000000000000000000000000000000000000000000000000000000081526004016107b290612295565b60405180910390fd5b600360008373ffffffffffffffffffffffffffffffffffffffff1673ffffffffffffffffffffffffffffffffffffffff168152602001908152602001600020549050919050565b600061080e6006611005565b600061081a600661101b565b90506108268382611029565b80915050919050565b60606001805461083e906124d0565b80601f016020809104026020016040519081016040528092919081815260200182805461086a906124d0565b80156108b75780601f1061088c576101008083540402835291602001916108b7565b820191906000526020600020905b81548152906001019060200180831161089a57829003601f168201915b5050505050905090565b6108d36108cc610b78565b8383611047565b5050565b6108e86108e2610b78565b83610c39565b610927576040517f08c379a000000000000000000000000000000000000000000000000000000000815260040161091e906121d5565b60405180910390fd5b610933848484846111b4565b50505050565b606061094482610b2d565b600061094e611210565b9050600081511161096e5760405180602001604052806000815250610999565b80610978846112a2565b60405160200161098992919061210d565b6040516020818303038152906040525b915050919050565b600780546109ae906124d0565b80601f01602080910402602001604051908101604052809291908181526020018280546109da906124d0565b8015610a275780601f106109fc57610100808354040283529160200191610a27565b820191906000526020600020905b815481529060010190602001808311610a0a57829003601f168201915b505050505081565b6000600560008473ffffffffffffffffffffffffffffffffffffffff1673ffffffffffffffffffffffffffffffffffffffff16815260200190815260200160002060008373ffffffffffffffffffffffffffffffffffffffff1673ffffffffffffffffffffffffffffffffffffffff16815260200190815260200160002060009054906101000a900460ff16905092915050565b60007f01ffc9a7000000000000000000000000000000000000000000000000000000007bffffffffffffffffffffffffffffffffffffffffffffffffffffffff1916827bffffffffffffffffffffffffffffffffffffffffffffffffffffffff1916149050919050565b610b36816113c6565b610b75576040517f08c379a0000000000000000000000000000000000000000000000000000000008152600401610b6c906122d5565b60405180910390fd5b50565b600033905090565b816004600083815260200190815260200160002060006101000a81548173ffffffffffffffffffffffffffffffffffffffff021916908373ffffffffffffffffffffffffffffffffffffffff160217905550808273ffffffffffffffffffffffffffffffffffffffff16610bf3836106c3565b73ffffffffffffffffffffffffffffffffffffffff167f8c5be1e5ebec7d5bd14f71427d1e84f3dd0314c0f7b2291e5b200ac8c7c3b92560405160405180910390a45050565b600080610c45836106c3565b90508073ffffffffffffffffffffffffffffffffffffffff168473ffffffffffffffffffffffffffffffffffffffff161480610c875750610c868185610a2f565b5b80610cc557508373ffffffffffffffffffffffffffffffffffffffff16610cad846104cb565b73ffffffffffffffffffffffffffffffffffffffff16145b91505092915050565b8273ffffffffffffffffffffffffffffffffffffffff16610cee826106c3565b73ffffffffffffffffffffffffffffffffffffffff1614610d44576040517f08c379a0000000000000000000000000000000000000000000000000000000008152600401610d3b90612215565b60405180910390fd5b600073ffffffffffffffffffffffffffffffffffffffff168273ffffffffffffffffffffffffffffffffffffffff161415610db4576040517f08c379a0000000000000000000000000000000000000000000000000000000008152600401610dab90612255565b60405180910390fd5b610dc18383836001611407565b8273ffffffffffffffffffffffffffffffffffffffff16610de1826106c3565b73ffffffffffffffffffffffffffffffffffffffff1614610e37576040517f08c379a0000000000000000000000000000000000000000000000000000000008152600401610e2e90612215565b60405180910390fd5b6004600082815260200190815260200160002060006101000a81549073ffffffffffffffffffffffffffffffffffffffff02191690556001600360008573ffffffffffffffffffffffffffffffffffffffff1673ffffffffffffffffffffffffffffffffffffffff168152602001908152602001600020600082825403925050819055506001600360008473ffffffffffffffffffffffffffffffffffffffff1673ffffffffffffffffffffffffffffffffffffffff16815260200190815260200160002060008282540192505081905550816002600083815260200190815260200160002060006101000a81548173ffffffffffffffffffffffffffffffffffffffff021916908373ffffffffffffffffffffffffffffffffffffffff160217905550808273ffffffffffffffffffffffffffffffffffffffff168473ffffffffffffffffffffffffffffffffffffffff167fddf252ad1be2c89b69c2b068fc378daa952ba7f163c4a11628f55a4df523b3ef60405160405180910390a4610fc3838383600161140d565b505050565b60006002600083815260200190815260200160002060009054906101000a900473ffffffffffffffffffffffffffffffffffffffff169050919050565b6001816000016000828254019250508190555050565b600081600001549050919050565b611043828260405180602001604052806000815250611413565b5050565b8173ffffffffffffffffffffffffffffffffffffffff168373ffffffffffffffffffffffffffffffffffffffff1614156110b6576040517f08c379a00000000000000000000000000000000000000000000000000000000081526004016110ad90612275565b60405180910390fd5b80600560008573ffffffffffffffffffffffffffffffffffffffff1673ffffffffffffffffffffffffffffffffffffffff16815260200190815260200160002060008473ffffffffffffffffffffffffffffffffffffffff1673ffffffffffffffffffffffffffffffffffffffff16815260200190815260200160002060006101000a81548160ff0219169083151502179055508173ffffffffffffffffffffffffffffffffffffffff168373ffffffffffffffffffffffffffffffffffffffff167f17307eab39ab6107e8899845ad3d59bd9653f200f220920489ca2b5937696c31836040516111a79190612198565b60405180910390a3505050565b6111bf848484610cce565b6111cb8484848461146e565b61120a576040517f08c379a0000000000000000000000000000000000000000000000000000000008152600401611201906121f5565b60405180910390fd5b50505050565b60606007805461121f906124d0565b80601f016020809104026020016040519081016040528092919081815260200182805461124b906124d0565b80156112985780601f1061126d57610100808354040283529160200191611298565b820191906000526020600020905b81548152906001019060200180831161127b57829003601f168201915b5050505050905090565b6060600060016112b184611605565b01905060008167ffffffffffffffff8111156112f6577f4e487b7100000000000000000000000000000000000000000000000000000000600052604160045260246000fd5b6040519080825280601f01601f1916602001820160405280156113285781602001600182028036833780820191505090505b509050600082602001820190505b6001156113bb578080600190039150507f3031323334353637383961626364656600000000000000000000000000000000600a86061a8153600a85816113a5577f4e487b7100000000000000000000000000000000000000000000000000000000600052601260045260246000fd5b04945060008514156113b6576113bb565b611336565b819350505050919050565b60008073ffffffffffffffffffffffffffffffffffffffff166113e883610fc8565b73ffffffffffffffffffffffffffffffffffffffff1614159050919050565b50505050565b50505050565b61141d838361183c565b61142a600084848461146e565b611469576040517f08c379a0000000000000000000000000000000000000000000000000000000008152600401611460906121f5565b60405180910390fd5b505050565b600061148f8473ffffffffffffffffffffffffffffffffffffffff16611a5a565b156115f8578373ffffffffffffffffffffffffffffffffffffffff1663150b7a026114b8610b78565b8786866040518563ffffffff1660e01b81526004016114da949392919061214c565b602060405180830381600087803b1580156114f457600080fd5b505af192505050801561152557506040513d601f19601f820116820180604052508101906115229190611e29565b60015b6115a8573d8060008114611555576040519150601f19603f3d011682016040523d82523d6000602084013e61155a565b606091505b506000815114156115a0576040517f08c379a0000000000000000000000000000000000000000000000000000000008152600401611597906121f5565b60405180910390fd5b805181602001fd5b63150b7a0260e01b7bffffffffffffffffffffffffffffffffffffffffffffffffffffffff1916817bffffffffffffffffffffffffffffffffffffffffffffffffffffffff1916149150506115fd565b600190505b949350505050565b600080600090507a184f03e93ff9f4daa797ed6e38ed64bf6a1f0100000000000000008310611689577a184f03e93ff9f4daa797ed6e38ed64bf6a1f010000000000000000838161167f577f4e487b7100000000000000000000000000000000000000000000000000000000600052601260045260246000fd5b0492506040810190505b6d04ee2d6d415b85acef810000000083106116ec576d04ee2d6d415b85acef810000000083816116e2577f4e487b7100000000000000000000000000000000000000000000000000000000600052601260045260246000fd5b0492506020810190505b662386f26fc10000831061174157662386f26fc100008381611737577f4e487b7100000000000000000000000000000000000000000000000000000000600052601260045260246000fd5b0492506010810190505b6305f5e1008310611790576305f5e1008381611786577f4e487b7100000000000000000000000000000000000000000000000000000000600052601260045260246000fd5b0492506008810190505b61271083106117db5761271083816117d1577f4e487b7100000000000000000000000000000000000000000000000000000000600052601260045260246000fd5b0492506004810190505b60648310611824576064838161181a577f4e487b7100000000000000000000000000000000000000000000000000000000600052601260045260246000fd5b0492506002810190505b600a8310611833576001810190505b80915050919050565b600073ffffffffffffffffffffffffffffffffffffffff168273ffffffffffffffffffffffffffffffffffffffff1614156118ac576040517f08c379a00000000000000000000000000000000000000000000000000000000081526004016118a3906122b5565b60405180910390fd5b6118b5816113c6565b156118f5576040517f08c379a00000000000000000000000000000000000000000000000000000000081526004016118ec90612235565b60405180910390fd5b611903600083836001611407565b61190c816113c6565b1561194c576040517f08c379a000000000000000000000000000000000000000000000000000000000815260040161194390612235565b60405180910390fd5b6001600360008473ffffffffffffffffffffffffffffffffffffffff1673ffffffffffffffffffffffffffffffffffffffff16815260200190815260200160002060008282540192505081905550816002600083815260200190815260200160002060006101000a81548173ffffffffffffffffffffffffffffffffffffffff021916908373ffffffffffffffffffffffffffffffffffffffff160217905550808273ffffffffffffffffffffffffffffffffffffffff16600073ffffffffffffffffffffffffffffffffffffffff167fddf252ad1be2c89b69c2b068fc378daa952ba7f163c4a11628f55a4df523b3ef60405160405180910390a4611a5660008383600161140d565b5050565b6000808273ffffffffffffffffffffffffffffffffffffffff163b119050919050565b828054611a89906124d0565b90600052602060002090601f016020900481019282611aab5760008555611af2565b82601f10611ac457805160ff1916838001178555611af2565b82800160010185558215611af2579182015b82811115611af1578251825591602001919060010190611ad6565b5b509050611aff9190611b03565b5090565b5b80821115611b1c576000816000905550600101611b04565b5090565b6000611b33611b2e84612375565b612350565b905082815260208101848484011115611b4b57600080fd5b611b5684828561248e565b509392505050565b6000611b71611b6c846123a6565b612350565b905082815260208101848484011115611b8957600080fd5b611b9484828561248e565b509392505050565b600081359050611bab8161286f565b92915050565b600081359050611bc081612886565b92915050565b600081359050611bd58161289d565b92915050565b600081519050611bea8161289d565b92915050565b600082601f830112611c0157600080fd5b8135611c11848260208601611b20565b91505092915050565b600082601f830112611c2b57600080fd5b8135611c3b848260208601611b5e565b91505092915050565b600081359050611c53816128b4565b92915050565b600060208284031215611c6b57600080fd5b6000611c7984828501611b9c565b91505092915050565b60008060408385031215611c9557600080fd5b6000611ca385828601611b9c565b9250506020611cb485828601611b9c565b9150509250929050565b600080600060608486031215611cd357600080fd5b6000611ce186828701611b9c565b9350506020611cf286828701611b9c565b9250506040611d0386828701611c44565b9150509250925092565b60008060008060808587031215611d2357600080fd5b6000611d3187828801611b9c565b9450506020611d4287828801611b9c565b9350506040611d5387828801611c44565b925050606085013567ffffffffffffffff811115611d7057600080fd5b611d7c87828801611bf0565b91505092959194509250565b60008060408385031215611d9b57600080fd5b6000611da985828601611b9c565b9250506020611dba85828601611bb1565b9150509250929050565b60008060408385031215611dd757600080fd5b6000611de585828601611b9c565b9250506020611df685828601611c44565b9150509250929050565b600060208284031215611e1257600080fd5b6000611e2084828501611bc6565b91505092915050565b600060208284031215611e3b57600080fd5b6000611e4984828501611bdb565b91505092915050565b600060208284031215611e6457600080fd5b600082013567ffffffffffffffff811115611e7e57600080fd5b611e8a84828501611c1a565b91505092915050565b600060208284031215611ea557600080fd5b6000611eb384828501611c44565b91505092915050565b611ec58161241a565b82525050565b611ed48161242c565b82525050565b6000611ee5826123d7565b611eef81856123ed565b9350611eff81856020860161249d565b611f0881612591565b840191505092915050565b6000611f1e826123e2565b611f2881856123fe565b9350611f3881856020860161249d565b611f4181612591565b840191505092915050565b6000611f57826123e2565b611f61818561240f565b9350611f7181856020860161249d565b80840191505092915050565b6000611f8a602d836123fe565b9150611f95826125a2565b604082019050919050565b6000611fad6032836123fe565b9150611fb8826125f1565b604082019050919050565b6000611fd06025836123fe565b9150611fdb82612640565b604082019050919050565b6000611ff3601c836123fe565b9150611ffe8261268f565b602082019050919050565b60006120166024836123fe565b9150612021826126b8565b604082019050919050565b60006120396019836123fe565b915061204482612707565b602082019050919050565b600061205c6029836123fe565b915061206782612730565b604082019050919050565b600061207f6020836123fe565b915061208a8261277f565b602082019050919050565b60006120a26018836123fe565b91506120ad826127a8565b602082019050919050565b60006120c56021836123fe565b91506120d0826127d1565b604082019050919050565b60006120e8603d836123fe565b91506120f382612820565b604082019050919050565b61210781612484565b82525050565b60006121198285611f4c565b91506121258284611f4c565b91508190509392505050565b60006020820190506121466000830184611ebc565b92915050565b60006080820190506121616000830187611ebc565b61216e6020830186611ebc565b61217b60408301856120fe565b818103606083015261218d8184611eda565b905095945050505050565b60006020820190506121ad6000830184611ecb565b92915050565b600060208201905081810360008301526121cd8184611f13565b905092915050565b600060208201905081810360008301526121ee81611f7d565b9050919050565b6000602082019050818103600083015261220e81611fa0565b9050919050565b6000602082019050818103600083015261222e81611fc3565b9050919050565b6000602082019050818103600083015261224e81611fe6565b9050919050565b6000602082019050818103600083015261226e81612009565b9050919050565b6000602082019050818103600083015261228e8161202c565b9050919050565b600060208201905081810360008301526122ae8161204f565b9050919050565b600060208201905081810360008301526122ce81612072565b9050919050565b600060208201905081810360008301526122ee81612095565b9050919050565b6000602082019050818103600083015261230e816120b8565b9050919050565b6000602082019050818103600083015261232e816120db565b9050919050565b600060208201905061234a60008301846120fe565b92915050565b600061235a61236b565b90506123668282612502565b919050565b6000604051905090565b600067ffffffffffffffff8211156123905761238f612562565b5b61239982612591565b9050602081019050919050565b600067ffffffffffffffff8211156123c1576123c0612562565b5b6123ca82612591565b9050602081019050919050565b600081519050919050565b600081519050919050565b600082825260208201905092915050565b600082825260208201905092915050565b600081905092915050565b600061242582612464565b9050919050565b60008115159050919050565b60007fffffffff0000000000000000000000000000000000000000000000000000000082169050919050565b600073ffffffffffffffffffffffffffffffffffffffff82169050919050565b6000819050919050565b82818337600083830152505050565b60005b838110156124bb5780820151818401526020810190506124a0565b838111156124ca576000848401525b50505050565b600060028204905060018216806124e857607f821691505b602082108114156124fc576124fb612533565b5b50919050565b61250b82612591565b810181811067ffffffffffffffff8211171561252a57612529612562565b5b80604052505050565b7f4e487b7100000000000000000000000000000000000000000000000000000000600052602260045260246000fd5b7f4e487b7100000000000000000000000000000000000000000000000000000000600052604160045260246000fd5b6000601f19601f8301169050919050565b7f4552433732313a2063616c6c6572206973206e6f7420746f6b656e206f776e6560008201527f72206f7220617070726f76656400000000000000000000000000000000000000602082015250565b7f4552433732313a207472616e7366657220746f206e6f6e20455243373231526560008201527f63656976657220696d706c656d656e7465720000000000000000000000000000602082015250565b7f4552433732313a207472616e736665722066726f6d20696e636f72726563742060008201527f6f776e6572000000000000000000000000000000000000000000000000000000602082015250565b7f4552433732313a20746f6b656e20616c7265616479206d696e74656400000000600082015250565b7f4552433732313a207472616e7366657220746f20746865207a65726f2061646460008201527f7265737300000000000000000000000000000000000000000000000000000000602082015250565b7f4552433732313a20617070726f766520746f2063616c6c657200000000000000600082015250565b7f4552433732313a2061646472657373207a65726f206973206e6f74206120766160008201527f6c6964206f776e65720000000000000000000000000000000000000000000000602082015250565b7f4552433732313a206d696e7420746f20746865207a65726f2061646472657373600082015250565b7f4552433732313a20696e76616c696420746f6b656e2049440000000000000000600082015250565b7f4552433732313a20617070726f76616c20746f2063757272656e74206f776e6560008201527f7200000000000000000000000000000000000000000000000000000000000000602082015250565b7f4552433732313a20617070726f76652063616c6c6572206973206e6f7420746f60008201527f6b656e206f776e6572206f7220617070726f76656420666f7220616c6c000000602082015250565b6128788161241a565b811461288357600080fd5b50565b61288f8161242c565b811461289a57600080fd5b50565b6128a681612438565b81146128b157600080fd5b50565b6128bd81612484565b81146128c857600080fd5b5056fea2646970667358221220293c64af2a72cbbb4385ee04fd9ad484ad0c7d11edd7dececfddcc24846fc06564736f6c63430008010033",
  "linkReferences": {},
  "deployedLinkReferences": {}
}