{
  "_format": "hh-sol-artifact-1",
  "contractName": "NFT",
  "sourceName": "contracts/NFT.sol",
  "abi": [
    {
      "inputs": [],
      "stateMutability": "nonpayable",
      "type": "constructor"
    },
    {
      "anonymous": false,
      "inputs": [
        {
          "indexed": true,
          "internalType": "address",
          "name": "owner",
          "type": "address"
        },
        {
          "indexed": true,
          "internalType": "address",
          "name": "approved",
          "type": "address"
        },
        {
          "indexed": true,
          "internalType": "uint256",
          "name": "tokenId",
          "type": "uint256"
        }
      ],
      "name": "Approval",
      "type": "event"
    },
    {
      "anonymous": false,
      "inputs": [
        {
          "indexed": true,
          "internalType": "address",
          "name": "owner",
          "type": "address"
        },
        {
          "indexed": true,
          "internalType": "address",
          "name": "operator",
          "type": "address"
        },
        {
          "indexed": false,
          "internalType": "bool",
          "name": "approved",
          "type": "bool"
        }
      ],
      "name": "ApprovalForAll",
      "type": "event"
    },
    {
      "anonymous": false,
      "inputs": [
        {
          "indexed": true,
          "internalType": "address",
          "name": "from",
          "type": "address"
        },
        {
          "indexed": true,
          "internalType": "address",
          "name": "to",
          "type": "address"
        },
        {
          "indexed": true,
          "internalType": "uint256",
          "name": "tokenId",
          "type": "uint256"
        }
      ],
      "name": "Transfer",
      "type": "event"
    },
    {
      "inputs": [
        {
          "internalType": "address",
          "name": "to",
          "type": "address"
        },
        {
          "internalType": "uint256",
          "name": "tokenId",
          "type": "uint256"
        }
      ],
      "name": "approve",
      "outputs": [],
      "stateMutability": "nonpayable",
      "type": "function"
    },
    {
      "inputs": [
        {
          "internalType": "address",
          "name": "owner",
          "type": "address"
        }
      ],
      "name": "balanceOf",
      "outputs": [
        {
          "internalType": "uint256",
          "name": "",
          "type": "uint256"
        }
      ],
      "stateMutability": "view",
      "type": "function"
    },
    {
      "inputs": [
        {
          "internalType": "uint256",
          "name": "tokenId",
          "type": "uint256"
        }
      ],
      "name": "getApproved",
      "outputs": [
        {
          "internalType": "address",
          "name": "",
          "type": "address"
        }
      ],
      "stateMutability": "view",
      "type": "function"
    },
    {
      "inputs": [
        {
          "internalType": "address",
          "name": "owner",
          "type": "address"
        },
        {
          "internalType": "address",
          "name": "operator",
          "type": "address"
        }
      ],
      "name": "isApprovedForAll",
      "outputs": [
        {
          "internalType": "bool",
          "name": "",
          "type": "bool"
        }
      ],
      "stateMutability": "view",
      "type": "function"
    },
    {
      "inputs": [
        {
          "internalType": "address",
          "name": "recipient",
          "type": "address"
        }
      ],
      "name": "mintTo",
      "outputs": [
        {
          "internalType": "uint256",
          "name": "",
          "type": "uint256"
        }
      ],
      "stateMutability": "nonpayable",
      "type": "function"
    },
    {
      "inputs": [],
      "name": "name",
      "outputs": [
        {
          "internalType": "string",
          "name": "",
          "type": "string"
        }
      ],
      "stateMutability": "view",
      "type": "function"
    },
    {
      "inputs": [
        {
          "internalType": "uint256",
          "name": "tokenId",
          "type": "uint256"
        }
      ],
      "name": "ownerOf",
      "outputs": [
        {
          "internalType": "address",
          "name": "",
          "type": "address"
        }
      ],
      "stateMutability": "view",
      "type": "function"
    },
    {
      "inputs": [
        {
          "internalType": "address",
          "name": "from",
          "type": "address"
        },
        {
          "internalType": "address",
          "name": "to",
          "type": "address"
        },
        {
          "internalType": "uint256",
          "name": "tokenId",
          "type": "uint256"
        }
      ],
      "name": "safeTransferFrom",
      "outputs": [],
      "stateMutability": "nonpayable",
      "type": "function"
    },
    {
      "inputs": [
        {
          "internalType": "address",
          "name": "from",
          "type": "address"
        },
        {
          "internalType": "address",
          "name": "to",
          "type": "address"
        },
        {
          "internalType": "uint256",
          "name": "tokenId",
          "type": "uint256"
        },
        {
          "internalType": "bytes",
          "name": "data",
          "type": "bytes"
        }
      ],
      "name": "safeTransferFrom",
      "outputs": [],
      "stateMutability": "nonpayable",
      "type": "function"
    },
    {
      "inputs": [
        {
          "internalType": "address",
          "name": "operator",
          "type": "address"
        },
        {
          "internalType": "bool",
          "name": "approved",
          "type": "bool"
        }
      ],
      "name": "setApprovalForAll",
      "outputs": [],
      "stateMutability": "nonpayable",
      "type": "function"
    },
    {
      "inputs": [
        {
          "internalType": "bytes4",
          "name": "interfaceId",
          "type": "bytes4"
        }
      ],
      "name": "supportsInterface",
      "outputs": [
        {
          "internalType": "bool",
          "name": "",
          "type": "bool"
        }
      ],
      "stateMutability": "view",
      "type": "function"
    },
    {
      "inputs": [],
      "name": "symbol",
      "outputs": [
        {
          "internalType": "string",
          "name": "",
          "type": "string"
        }
      ],
      "stateMutability": "view",
      "type": "function"
    },
    {
      "inputs": [
        {
          "internalType": "uint256",
          "name": "tokenId",
          "type": "uint256"
        }
      ],
      "name": "tokenURI",
      "outputs": [
        {
          "internalType": "string",
          "name": "",
          "type": "string"
        }
      ],
      "stateMutability": "view",
      "type": "function"
    },
    {
      "inputs": [
        {
          "internalType": "address",
          "name": "from",
          "type": "address"
        },
        {
          "internalType": "address",
          "name": "to",
          "type": "address"
        },
        {
          "internalType": "uint256",
          "name": "tokenId",
          "type": "uint256"
        }
      ],
      "name": "transferFrom",
      "outputs": [],
      "stateMutability": "nonpayable",
      "type": "function"
    }
  ],
  "bytecode": "0x60806040523480156200001157600080fd5b506040518060400160405280600b81526020017f4e46545475746f7269616c0000000000000000000000000000000000000000008152506040518060400160405280600381526020017f4e46540000000000000000000000000000000000000000000000000000000000815250816000908051906020019062000096929190620000b8565b508060019080519060200190620000af929190620000b8565b505050620001cd565b828054620000c69062000168565b90600052602060002090601f016020900481019282620000ea576000855562000136565b82601f106200010557805160ff191683800117855562000136565b8280016001018555821562000136579182015b828111156200013557825182559160200191906001019062000118565b5b50905062000145919062000149565b5090565b5b80821115620001645760008160009055506001016200014a565b5090565b600060028204905060018216806200018157607f821691505b602082108114156200019857620001976200019e565b5b50919050565b7f4e487b7100000000000000000000000000000000000000000000000000000000600052602260045260246000fd5b61261180620001dd6000396000f3fe608060405234801561001057600080fd5b50600436106100ea5760003560e01c806370a082311161008c578063a22cb46511610066578063a22cb4651461026f578063b88d4fde1461028b578063c87b56dd146102a7578063e985e9c5146102d7576100ea565b806370a08231146101f1578063755edd171461022157806395d89b4114610251576100ea565b8063095ea7b3116100c8578063095ea7b31461016d57806323b872dd1461018957806342842e0e146101a55780636352211e146101c1576100ea565b806301ffc9a7146100ef57806306fdde031461011f578063081812fc1461013d575b600080fd5b61010960048036038101906101049190611b82565b610307565b6040516101169190611ed9565b60405180910390f35b6101276103e9565b6040516101349190611ef4565b60405180910390f35b61015760048036038101906101529190611bd4565b61047b565b6040516101649190611e72565b60405180910390f35b61018760048036038101906101829190611b46565b6104c1565b005b6101a3600480360381019061019e9190611a40565b6105d9565b005b6101bf60048036038101906101ba9190611a40565b610639565b005b6101db60048036038101906101d69190611bd4565b610659565b6040516101e89190611e72565b60405180910390f35b61020b600480360381019061020691906119db565b6106e0565b6040516102189190612076565b60405180910390f35b61023b600480360381019061023691906119db565b610798565b6040516102489190612076565b60405180910390f35b6102596107c5565b6040516102669190611ef4565b60405180910390f35b61028960048036038101906102849190611b0a565b610857565b005b6102a560048036038101906102a09190611a8f565b61086d565b005b6102c160048036038101906102bc9190611bd4565b6108cf565b6040516102ce9190611ef4565b60405180910390f35b6102f160048036038101906102ec9190611a04565b610937565b6040516102fe9190611ed9565b60405180910390f35b60007f80ac58cd000000000000000000000000000000000000000000000000000000007bffffffffffffffffffffffffffffffffffffffffffffffffffffffff1916827bffffffffffffffffffffffffffffffffffffffffffffffffffffffff191614806103d257507f5b5e139f000000000000000000000000000000000000000000000000000000007bffffffffffffffffffffffffffffffffffffffffffffffffffffffff1916827bffffffffffffffffffffffffffffffffffffffffffffffffffffffff1916145b806103e257506103e1826109cb565b5b9050919050565b6060600080546103f8906121e0565b80601f0160208091040260200160405190810160405280929190818152602001828054610424906121e0565b80156104715780601f1061044657610100808354040283529160200191610471565b820191906000526020600020905b81548152906001019060200180831161045457829003601f168201915b5050505050905090565b600061048682610a35565b6004600083815260200190815260200160002060009054906101000a900473ffffffffffffffffffffffffffffffffffffffff169050919050565b60006104cc82610659565b90508073ffffffffffffffffffffffffffffffffffffffff168373ffffffffffffffffffffffffffffffffffffffff16141561053d576040517f08c379a000000000000000000000000000000000000000000000000000000000815260040161053490612036565b60405180910390fd5b8073ffffffffffffffffffffffffffffffffffffffff1661055c610a80565b73ffffffffffffffffffffffffffffffffffffffff16148061058b575061058a81610585610a80565b610937565b5b6105ca576040517f08c379a00000000000000000000000000000000000000000000000000000000081526004016105c190612056565b60405180910390fd5b6105d48383610a88565b505050565b6105ea6105e4610a80565b82610b41565b610629576040517f08c379a000000000000000000000000000000000000000000000000000000000815260040161062090611f16565b60405180910390fd5b610634838383610bd6565b505050565b6106548383836040518060200160405280600081525061086d565b505050565b60008061066583610ed0565b9050600073ffffffffffffffffffffffffffffffffffffffff168173ffffffffffffffffffffffffffffffffffffffff1614156106d7576040517f08c379a00000000000000000000000000000000000000000000000000000000081526004016106ce90612016565b60405180910390fd5b80915050919050565b60008073ffffffffffffffffffffffffffffffffffffffff168273ffffffffffffffffffffffffffffffffffffffff161415610751576040517f08c379a000000000000000000000000000000000000000000000000000000000815260040161074890611fd6565b60405180910390fd5b600360008373ffffffffffffffffffffffffffffffffffffffff1673ffffffffffffffffffffffffffffffffffffffff168152602001908152602001600020549050919050565b60006107a46006610f0d565b60006107b06006610f23565b90506107bc8382610f31565b80915050919050565b6060600180546107d4906121e0565b80601f0160208091040260200160405190810160405280929190818152602001828054610800906121e0565b801561084d5780601f106108225761010080835404028352916020019161084d565b820191906000526020600020905b81548152906001019060200180831161083057829003601f168201915b5050505050905090565b610869610862610a80565b8383610f4f565b5050565b61087e610878610a80565b83610b41565b6108bd576040517f08c379a00000000000000000000000000000000000000000000000000000000081526004016108b490611f16565b60405180910390fd5b6108c9848484846110bc565b50505050565b60606108da82610a35565b60006108e4611118565b90506000815111610904576040518060200160405280600081525061092f565b8061090e8461112f565b60405160200161091f929190611e4e565b6040516020818303038152906040525b915050919050565b6000600560008473ffffffffffffffffffffffffffffffffffffffff1673ffffffffffffffffffffffffffffffffffffffff16815260200190815260200160002060008373ffffffffffffffffffffffffffffffffffffffff1673ffffffffffffffffffffffffffffffffffffffff16815260200190815260200160002060009054906101000a900460ff16905092915050565b60007f01ffc9a7000000000000000000000000000000000000000000000000000000007bffffffffffffffffffffffffffffffffffffffffffffffffffffffff1916827bffffffffffffffffffffffffffffffffffffffffffffffffffffffff1916149050919050565b610a3e81611253565b610a7d576040517f08c379a0000000000000000000000000000000000000000000000000000000008152600401610a7490612016565b60405180910390fd5b50565b600033905090565b816004600083815260200190815260200160002060006101000a81548173ffffffffffffffffffffffffffffffffffffffff021916908373ffffffffffffffffffffffffffffffffffffffff160217905550808273ffffffffffffffffffffffffffffffffffffffff16610afb83610659565b73ffffffffffffffffffffffffffffffffffffffff167f8c5be1e5ebec7d5bd14f71427d1e84f3dd0314c0f7b2291e5b200ac8c7c3b92560405160405180910390a45050565b600080610b4d83610659565b90508073ffffffffffffffffffffffffffffffffffffffff168473ffffffffffffffffffffffffffffffffffffffff161480610b8f5750610b8e8185610937565b5b80610bcd57508373ffffffffffffffffffffffffffffffffffffffff16610bb58461047b565b73ffffffffffffffffffffffffffffffffffffffff16145b91505092915050565b8273ffffffffffffffffffffffffffffffffffffffff16610bf682610659565b73ffffffffffffffffffffffffffffffffffffffff1614610c4c576040517f08c379a0000000000000000000000000000000000000000000000000000000008152600401610c4390611f56565b60405180910390fd5b600073ffffffffffffffffffffffffffffffffffffffff168273ffffffffffffffffffffffffffffffffffffffff161415610cbc576040517f08c379a0000000000000000000000000000000000000000000000000000000008152600401610cb390611f96565b60405180910390fd5b610cc98383836001611294565b8273ffffffffffffffffffffffffffffffffffffffff16610ce982610659565b73ffffffffffffffffffffffffffffffffffffffff1614610d3f576040517f08c379a0000000000000000000000000000000000000000000000000000000008152600401610d3690611f56565b60405180910390fd5b6004600082815260200190815260200160002060006101000a81549073ffffffffffffffffffffffffffffffffffffffff02191690556001600360008573ffffffffffffffffffffffffffffffffffffffff1673ffffffffffffffffffffffffffffffffffffffff168152602001908152602001600020600082825403925050819055506001600360008473ffffffffffffffffffffffffffffffffffffffff1673ffffffffffffffffffffffffffffffffffffffff16815260200190815260200160002060008282540192505081905550816002600083815260200190815260200160002060006101000a81548173ffffffffffffffffffffffffffffffffffffffff021916908373ffffffffffffffffffffffffffffffffffffffff160217905550808273ffffffffffffffffffffffffffffffffffffffff168473ffffffffffffffffffffffffffffffffffffffff167fddf252ad1be2c89b69c2b068fc378daa952ba7f163c4a11628f55a4df523b3ef60405160405180910390a4610ecb838383600161129a565b505050565b60006002600083815260200190815260200160002060009054906101000a900473ffffffffffffffffffffffffffffffffffffffff169050919050565b6001816000016000828254019250508190555050565b600081600001549050919050565b610f4b8282604051806020016040528060008152506112a0565b5050565b8173ffffffffffffffffffffffffffffffffffffffff168373ffffffffffffffffffffffffffffffffffffffff161415610fbe576040517f08c379a0000000000000000000000000000000000000000000000000000000008152600401610fb590611fb6565b60405180910390fd5b80600560008573ffffffffffffffffffffffffffffffffffffffff1673ffffffffffffffffffffffffffffffffffffffff16815260200190815260200160002060008473ffffffffffffffffffffffffffffffffffffffff1673ffffffffffffffffffffffffffffffffffffffff16815260200190815260200160002060006101000a81548160ff0219169083151502179055508173ffffffffffffffffffffffffffffffffffffffff168373ffffffffffffffffffffffffffffffffffffffff167f17307eab39ab6107e8899845ad3d59bd9653f200f220920489ca2b5937696c31836040516110af9190611ed9565b60405180910390a3505050565b6110c7848484610bd6565b6110d3848484846112fb565b611112576040517f08c379a000000000000000000000000000000000000000000000000000000000815260040161110990611f36565b60405180910390fd5b50505050565b606060405180602001604052806000815250905090565b60606000600161113e84611492565b01905060008167ffffffffffffffff811115611183577f4e487b7100000000000000000000000000000000000000000000000000000000600052604160045260246000fd5b6040519080825280601f01601f1916602001820160405280156111b55781602001600182028036833780820191505090505b509050600082602001820190505b600115611248578080600190039150507f3031323334353637383961626364656600000000000000000000000000000000600a86061a8153600a8581611232577f4e487b7100000000000000000000000000000000000000000000000000000000600052601260045260246000fd5b049450600085141561124357611248565b6111c3565b819350505050919050565b60008073ffffffffffffffffffffffffffffffffffffffff1661127583610ed0565b73ffffffffffffffffffffffffffffffffffffffff1614159050919050565b50505050565b50505050565b6112aa83836116c9565b6112b760008484846112fb565b6112f6576040517f08c379a00000000000000000000000000000000000000000000000000000000081526004016112ed90611f36565b60405180910390fd5b505050565b600061131c8473ffffffffffffffffffffffffffffffffffffffff166118e7565b15611485578373ffffffffffffffffffffffffffffffffffffffff1663150b7a02611345610a80565b8786866040518563ffffffff1660e01b81526004016113679493929190611e8d565b602060405180830381600087803b15801561138157600080fd5b505af19250505080156113b257506040513d601f19601f820116820180604052508101906113af9190611bab565b60015b611435573d80600081146113e2576040519150601f19603f3d011682016040523d82523d6000602084013e6113e7565b606091505b5060008151141561142d576040517f08c379a000000000000000000000000000000000000000000000000000000000815260040161142490611f36565b60405180910390fd5b805181602001fd5b63150b7a0260e01b7bffffffffffffffffffffffffffffffffffffffffffffffffffffffff1916817bffffffffffffffffffffffffffffffffffffffffffffffffffffffff19161491505061148a565b600190505b949350505050565b600080600090507a184f03e93ff9f4daa797ed6e38ed64bf6a1f0100000000000000008310611516577a184f03e93ff9f4daa797ed6e38ed64bf6a1f010000000000000000838161150c577f4e487b7100000000000000000000000000000000000000000000000000000000600052601260045260246000fd5b0492506040810190505b6d04ee2d6d415b85acef81000000008310611579576d04ee2d6d415b85acef8100000000838161156f577f4e487b7100000000000000000000000000000000000000000000000000000000600052601260045260246000fd5b0492506020810190505b662386f26fc1000083106115ce57662386f26fc1000083816115c4577f4e487b7100000000000000000000000000000000000000000000000000000000600052601260045260246000fd5b0492506010810190505b6305f5e100831061161d576305f5e1008381611613577f4e487b7100000000000000000000000000000000000000000000000000000000600052601260045260246000fd5b0492506008810190505b612710831061166857612710838161165e577f4e487b7100000000000000000000000000000000000000000000000000000000600052601260045260246000fd5b0492506004810190505b606483106116b157606483816116a7577f4e487b7100000000000000000000000000000000000000000000000000000000600052601260045260246000fd5b0492506002810190505b600a83106116c0576001810190505b80915050919050565b600073ffffffffffffffffffffffffffffffffffffffff168273ffffffffffffffffffffffffffffffffffffffff161415611739576040517f08c379a000000000000000000000000000000000000000000000000000000000815260040161173090611ff6565b60405180910390fd5b61174281611253565b15611782576040517f08c379a000000000000000000000000000000000000000000000000000000000815260040161177990611f76565b60405180910390fd5b611790600083836001611294565b61179981611253565b156117d9576040517f08c379a00000000000000000000000000000000000000000000000000000000081526004016117d090611f76565b60405180910390fd5b6001600360008473ffffffffffffffffffffffffffffffffffffffff1673ffffffffffffffffffffffffffffffffffffffff16815260200190815260200160002060008282540192505081905550816002600083815260200190815260200160002060006101000a81548173ffffffffffffffffffffffffffffffffffffffff021916908373ffffffffffffffffffffffffffffffffffffffff160217905550808273ffffffffffffffffffffffffffffffffffffffff16600073ffffffffffffffffffffffffffffffffffffffff167fddf252ad1be2c89b69c2b068fc378daa952ba7f163c4a11628f55a4df523b3ef60405160405180910390a46118e360008383600161129a565b5050565b6000808273ffffffffffffffffffffffffffffffffffffffff163b119050919050565b600061191d611918846120b6565b612091565b90508281526020810184848401111561193557600080fd5b61194084828561219e565b509392505050565b6000813590506119578161257f565b92915050565b60008135905061196c81612596565b92915050565b600081359050611981816125ad565b92915050565b600081519050611996816125ad565b92915050565b600082601f8301126119ad57600080fd5b81356119bd84826020860161190a565b91505092915050565b6000813590506119d5816125c4565b92915050565b6000602082840312156119ed57600080fd5b60006119fb84828501611948565b91505092915050565b60008060408385031215611a1757600080fd5b6000611a2585828601611948565b9250506020611a3685828601611948565b9150509250929050565b600080600060608486031215611a5557600080fd5b6000611a6386828701611948565b9350506020611a7486828701611948565b9250506040611a85868287016119c6565b9150509250925092565b60008060008060808587031215611aa557600080fd5b6000611ab387828801611948565b9450506020611ac487828801611948565b9350506040611ad5878288016119c6565b925050606085013567ffffffffffffffff811115611af257600080fd5b611afe8782880161199c565b91505092959194509250565b60008060408385031215611b1d57600080fd5b6000611b2b85828601611948565b9250506020611b3c8582860161195d565b9150509250929050565b60008060408385031215611b5957600080fd5b6000611b6785828601611948565b9250506020611b78858286016119c6565b9150509250929050565b600060208284031215611b9457600080fd5b6000611ba284828501611972565b91505092915050565b600060208284031215611bbd57600080fd5b6000611bcb84828501611987565b91505092915050565b600060208284031215611be657600080fd5b6000611bf4848285016119c6565b91505092915050565b611c068161212a565b82525050565b611c158161213c565b82525050565b6000611c26826120e7565b611c3081856120fd565b9350611c408185602086016121ad565b611c49816122a1565b840191505092915050565b6000611c5f826120f2565b611c69818561210e565b9350611c798185602086016121ad565b611c82816122a1565b840191505092915050565b6000611c98826120f2565b611ca2818561211f565b9350611cb28185602086016121ad565b80840191505092915050565b6000611ccb602d8361210e565b9150611cd6826122b2565b604082019050919050565b6000611cee60328361210e565b9150611cf982612301565b604082019050919050565b6000611d1160258361210e565b9150611d1c82612350565b604082019050919050565b6000611d34601c8361210e565b9150611d3f8261239f565b602082019050919050565b6000611d5760248361210e565b9150611d62826123c8565b604082019050919050565b6000611d7a60198361210e565b9150611d8582612417565b602082019050919050565b6000611d9d60298361210e565b9150611da882612440565b604082019050919050565b6000611dc060208361210e565b9150611dcb8261248f565b602082019050919050565b6000611de360188361210e565b9150611dee826124b8565b602082019050919050565b6000611e0660218361210e565b9150611e11826124e1565b604082019050919050565b6000611e29603d8361210e565b9150611e3482612530565b604082019050919050565b611e4881612194565b82525050565b6000611e5a8285611c8d565b9150611e668284611c8d565b91508190509392505050565b6000602082019050611e876000830184611bfd565b92915050565b6000608082019050611ea26000830187611bfd565b611eaf6020830186611bfd565b611ebc6040830185611e3f565b8181036060830152611ece8184611c1b565b905095945050505050565b6000602082019050611eee6000830184611c0c565b92915050565b60006020820190508181036000830152611f0e8184611c54565b905092915050565b60006020820190508181036000830152611f2f81611cbe565b9050919050565b60006020820190508181036000830152611f4f81611ce1565b9050919050565b60006020820190508181036000830152611f6f81611d04565b9050919050565b60006020820190508181036000830152611f8f81611d27565b9050919050565b60006020820190508181036000830152611faf81611d4a565b9050919050565b60006020820190508181036000830152611fcf81611d6d565b9050919050565b60006020820190508181036000830152611fef81611d90565b9050919050565b6000602082019050818103600083015261200f81611db3565b9050919050565b6000602082019050818103600083015261202f81611dd6565b9050919050565b6000602082019050818103600083015261204f81611df9565b9050919050565b6000602082019050818103600083015261206f81611e1c565b9050919050565b600060208201905061208b6000830184611e3f565b92915050565b600061209b6120ac565b90506120a78282612212565b919050565b6000604051905090565b600067ffffffffffffffff8211156120d1576120d0612272565b5b6120da826122a1565b9050602081019050919050565b600081519050919050565b600081519050919050565b600082825260208201905092915050565b600082825260208201905092915050565b600081905092915050565b600061213582612174565b9050919050565b60008115159050919050565b60007fffffffff0000000000000000000000000000000000000000000000000000000082169050919050565b600073ffffffffffffffffffffffffffffffffffffffff82169050919050565b6000819050919050565b82818337600083830152505050565b60005b838110156121cb5780820151818401526020810190506121b0565b838111156121da576000848401525b50505050565b600060028204905060018216806121f857607f821691505b6020821081141561220c5761220b612243565b5b50919050565b61221b826122a1565b810181811067ffffffffffffffff8211171561223a57612239612272565b5b80604052505050565b7f4e487b7100000000000000000000000000000000000000000000000000000000600052602260045260246000fd5b7f4e487b7100000000000000000000000000000000000000000000000000000000600052604160045260246000fd5b6000601f19601f8301169050919050565b7f4552433732313a2063616c6c6572206973206e6f7420746f6b656e206f776e6560008201527f72206f7220617070726f76656400000000000000000000000000000000000000602082015250565b7f4552433732313a207472616e7366657220746f206e6f6e20455243373231526560008201527f63656976657220696d706c656d656e7465720000000000000000000000000000602082015250565b7f4552433732313a207472616e736665722066726f6d20696e636f72726563742060008201527f6f776e6572000000000000000000000000000000000000000000000000000000602082015250565b7f4552433732313a20746f6b656e20616c7265616479206d696e74656400000000600082015250565b7f4552433732313a207472616e7366657220746f20746865207a65726f2061646460008201527f7265737300000000000000000000000000000000000000000000000000000000602082015250565b7f4552433732313a20617070726f766520746f2063616c6c657200000000000000600082015250565b7f4552433732313a2061646472657373207a65726f206973206e6f74206120766160008201527f6c6964206f776e65720000000000000000000000000000000000000000000000602082015250565b7f4552433732313a206d696e7420746f20746865207a65726f2061646472657373600082015250565b7f4552433732313a20696e76616c696420746f6b656e2049440000000000000000600082015250565b7f4552433732313a20617070726f76616c20746f2063757272656e74206f776e6560008201527f7200000000000000000000000000000000000000000000000000000000000000602082015250565b7f4552433732313a20617070726f76652063616c6c6572206973206e6f7420746f60008201527f6b656e206f776e6572206f7220617070726f76656420666f7220616c6c000000602082015250565b6125888161212a565b811461259357600080fd5b50565b61259f8161213c565b81146125aa57600080fd5b50565b6125b681612148565b81146125c157600080fd5b50565b6125cd81612194565b81146125d857600080fd5b5056fea2646970667358221220d4d491d70cc3e4507d03a73c7478872b50afee5e8c66c2ac058e7b2d1baddbbd64736f6c63430008010033",
  "linkReferences": {},
  "deployedLinkReferences": {}
}